:020000001628C0
:0E0006008312031323088A00220882000800D8
:1000140003208A110A128000840AA20A0319A30A7F
:08002400F003031D0A28080087
:10002C000330831603138500860183128601A00119
:10003C00A101051C612880302106F000803070027F
:10004C00031D2A280A302002031860280830860075
:10005C008230FC00DD30FD00FD0B3228FC0B322819
:10006C0000000000043086008230FC00DD30FD0012
:10007C00FD0B3E28FC0B3E280000000002308600E1
:10008C008230FC00DD30FD00FD0B4A28FC0B4A28B9
:10009C0000000000013086008230FC00DD30FD00E5
:1000AC00FD0B5628FC0B562800000000A00A031973
:1000BC00A10A21281F28A001A101851CA528803098
:1000CC002106F00080307002031D6E280A302002D9
:1000DC000318A428013086008230FC00DD30FD00BE
:1000EC00FD0B7628FC0B7628000000000230860001
:1000FC008230FC00DD30FD00FD0B8228FC0B8228D9
:10010C0000000000043086008230FC00DD30FD0071
:10011C00FD0B8E28FC0B8E2800000000083086009A
:10012C008230FC00DD30FD00FD0B9A28FC0B9A2878
:10013C0000000000A00A0319A10A652863281D28E5
:02014C00A628E3
:02400E006A2125
:00000001FF
