:100000000428FF3FFF3FFF3F03138316850186014E
:10001000803087008801890107309F008130990076
:1000200018152C204720700803191A283C20700846
:10003000A0001C2012281B280030031383169818D8
:100040000130F1007108003A031D282800001C2827
:100050008312200899000800031383169816903025
:100060008312980083168717071383128C1E3B2870
:100070001A08A40035280800031383121A08A000E8
:10008000981C4428181218162008F00008000030A8
:10009000031383128C1A0130F1007108F00008007C
:02400E00723FFF
:00000001FF
