:020000001628C0
:0E0006008312031321088A00200882000800DC
:1000140003208A110A128000840AA00A0319A10A83
:08002400F003031D0A28080087
:10002C0083120313A201A301063083169F00FF3035
:10003C008500860183128601051A252822280030A6
:10004C002306031D2B2803302206031D302806101F
:10005C00A201A3010F300505F1007108083A031D38
:10006C00432800302306031D3D2800302206031DC3
:10007C0043280130A2000030A3000F300505F10029
:10008C007108033A031D562800302306031D50281F
:10009C0001302206031D56280230A2000030A300B6
:1000AC0000302306031D5C2802302206031D632842
:1000BC0006140330A2000030A300051E6628632836
:0400CC002228672857
:02400E004A2F37
:00000001FF
