:100000000428FF3FFF3FFF3FFE2293211430B00042
:10001000B1015B233008BF00C0013230C1003B2179
:100020000230C6000130C7003230C800FF21051C75
:1000300053280D30FB00FF30FA00FB0B202823284B
:10004000FA0B20281D28F330FA00FA0B25280000AF
:10005000051C40283008DC3C031C40280A303007CF
:10006000F0007008B0007008BF00C0013230C1005D
:100070003B210230C6000130C7003230C800FF21EA
:10008000051840280D30FB00FF30FA00FB0B492813
:100090004C28FA0B49284628F330FA00FA0B4E2870
:1000A000000005184028851C8F280D30FB00FF300C
:1000B000FA00FB0B5C285F28FA0B5C285928F33008
:1000C000FA00FA0B61280000851C7C281E303002E3
:1000D000031C7C280A303002F0007008B000700861
:1000E000BF00C0013230C1003B210230C6000130E8
:1000F000C7003230C800FF2185187C280D30FB0076
:10010000FF30FA00FB0B85288828FA0B8528822807
:10011000F330FA00FA0B8A28000085187C28310891
:100120003006031998283008BF008C223008B1002F
:10013000172899283923392339234608A00046086F
:1001400084008417801100110010801300138012A6
:10015000001284138011001100108013001380120C
:100160000012801600168015801139238015801129
:1001700039238015801139238016001280158011D3
:100180003923800180168015801180018017801529
:10019000801139238001001680158011800180159F
:1001A000801139238001801580110016801580117F
:1001B00039238001801580110016801600178017E2
:1001C0008015801139230130A10008000313831228
:1001D0004808840020308000480AF000700884003D
:1001E0002030800002304807F00070088400203082
:1001F000800003304807F000700884002030800041
:1002000004304807F000700884003030800005306A
:100210004807F0007008840080010430C9004708D6
:10022000003C031D15294608003C03183A294908DB
:100230004807CA000A30F400F5014608F0004708F4
:10024000F1001C237808F0007908F1003030F00745
:100250004A088400700880000A30F400F50146085E
:10026000F0004708F1001C237008C6007108C700A1
:10027000C9030F29080003138312C3013F08C400F8
:100280004008C50080304006F00080307002031D39
:100290004B2900303F02031857290130C3003F08A3
:1002A000003CC4004008031C013FC501C5024408CE
:1002B000C6004508C7004108C800E6200630C20055
:1002C0004208003C0318782942084107F200013037
:1002D0004202F000F101031CF103700841078400A1
:1002E0000008F0007208840070088000C2036029D2
:1002F00041088400203080004308031992294208F5
:10030000410784000008F2007208203A031D8A2980
:10031000C20A7F29C20342084107F0007008840026
:100320002D308000080003138316860186010630F5
:100330008312C6009A200130CC00C1210C30CC00C1
:10034000C1210130C6000130C7002208C800FF21CA
:10035000063083169F0003308500831287018316C1
:100360008701831212147C308316920071231214B9
:100370007C30831692006B2363239630C600C5221F
:10038000080003138312200884004C080319C829AD
:10039000801100118013001380120012CC1B8017F3
:1003A0004C1B0017CC1A80164C1A00162108031992
:1003B000DB290011DC290015801577234C0803196F
:1003C000E129801100118013001380120012CC1952
:1003D00080174C190017CC1880164C1800162108ED
:1003E0000319F4290011F5290015801577238011D0
:1003F00021080319FD293923FE2953230800112A56
:10040000803003138312C600242AC030C600242A79
:100410009430C600242AD430C600242A8030C60076
:10042000242A031383124608013A0319002A4608B6
:10043000023A0319052A4608033A0319082A46080E
:10044000043A03190B2A0E2A4703F0004608F00766
:100450007008C6007008CC00C121A101C90149087B
:10046000480784000008F000700803193F2A490873
:10047000480784000008CB004A23C90A2F2A01300C
:10048000A100080003138312FB01FA01F901803077
:10049000F800FD01F11F522AF109F009F00A0319D1
:1004A000F10AFD0AF51F5A2AF509F409F40A03199D
:1004B000F50AFD0AF10CF00C031C672A7408F90711
:1004C00075080318750FFA070318FB0A0310F01FCD
:1004D0006F2A7408FA070318FB0A7508FB07FB0C60
:1004E000FA0CF90CF80C031C5A2A7D1C822AFB0911
:1004F000FA09F909F809F80A0319F90A0319FA0AB5
:100500000319FB0A7B08F3007A08F2007908F1006E
:100510007808F00000000800031383161208013F5A
:10052000F000F1010318F10A83123F08F400F5010D
:1005300042220630F2007008F4007108F5007208DB
:100540000319A72AF50CF40CF513FF3FA02A740831
:10055000F000F00D7010F00D7010F00D7010F00D37
:10056000701030307005F3007408F0007508F10069
:10057000F10CF00CF113F10CF00CF1137008950074
:100580000F309705730897040800031383161208A9
:10059000013FF000F1010318F10A83124608F4004C
:1005A000F50142220630F2007008F4007108F500EF
:1005B00072080319E02AF50CF40CF513FF3FD92A51
:1005C0007408F000F00D7010F00D7010F00D701048
:1005D000F00D701030307005F3007408F0007508ED
:1005E000F100F10CF00CF113F10CF00CF1137008A8
:1005F0009B000F309D0573089D04080056300313BF
:100600008312A3006130A4006C30A5006F30A600F7
:100610007230A7002030A8006430A9006530AA001D
:100620002030AB005030AC005730AD003A30AE0057
:10063000AF012330A200080003138312F801F9016F
:100640001030FC00710DF80DF90D7408F8027508F2
:10065000031C750FF9020318342B7408F80775088A
:100660000318750FF9070310F00DF10DFC0B222B89
:100670000800083003138312FB00FF30FA00FB0B65
:10068000422B452BFA0B422B3F2B1E30FA00FA0B64
:10069000472B080003138312A1014B08CC00C12192
:1006A0000130A1000800103003138312FA00FA0B86
:1006B000572B00000800031383160711831212152D
:1006C0000C30970408000313831687108312121549
:1006D0000C309D040800031383129B011D129D1210
:1006E00008000313831295011712971208000000E7
:1006F0000800FF3FFF3FFF3FFF3FFF3FFF3FFF3F40
:02400E007B3FF6
:00000001FF
