:020000000629CF
:0E000600533083120313FD00FD0B0728080082
:10001400243083120313FC00B530FD00FD0B1028BF
:0A002400FC0B10280000000008008B
:0C002E00000000000000000000000800BE
:10003A0083120313D81B2328051124280515581BDE
:10004A002828851129288515D81A2D2885122E28A1
:10005A008516581A322809103328091451183728D6
:10006A00091538280911891417208910D8193F2829
:10007A000511402805155819442885114528851564
:10008A00D818492885124A28851658184E28091062
:10009A004F2809145118532809155428091189148D
:1000AA0017208910511C5B280A205C2803200800AD
:0E00BA008312031350088A004F0882000800CA
:1000C8008312031351105708D8001D20511408003B
:1000D800831603138910091109108512851105115A
:1000E80083128910091105118511851209100A203A
:1000F8000A200A20851609148914172089100A2055
:100108008914172089100A208914172089100A20B9
:1001180009108914172089100A20891417208910BA
:10012800851205158914172089100A20051109144C
:1001380089141720891009108914172089100A209A
:1001480089141720891009148914172089100A2086
:1001580009108914172089100515851585160914A5
:0C0168008914172089100A205114080087
:10017400CC28803083120313D300DF28C030D3008F
:10018400DF289430D300DF28D430D300DF28803038
:10019400D300DF28831203135308013A0319BB2841
:1001A4005308023A0319C0285308033A0319C32811
:1001B4005308043A0319C628C9285403F000530805
:1001C400F0077008D3007008D8001D205110D60124
:1001D40056085507840000080319F82856085507DF
:1001E40084000008D7006420D60AEA2851140800C5
:1001F4005D208A110A128000840ACF0A0319D00AEA
:08020400F003031DFA280800B5
:10020C009E2283120313D2013F3083168500FF30E8
:10021C008600870188010E309F0081136C200C3002
:10022C00D8001D200130D8001D208030D8001D20A2
:10023C000D30FC00FB30FD00FD0B2229FC0B2229AC
:10024C00000000000130D3000230D4002930D5006A
:10025C00BA200230D3000930D4002030D500BA20A7
:10026C00803088000130D200083052020318542923
:10027C000808F000F00CF013700888000430FB0044
:10028C00CF30FC000130FD00FD0B4A29FC0B4A2944
:10029C00FB0B4A2900000000D20A3A290130D20097
:1002AC0008305202031870290808F000F00D701085
:1002BC00700888000430FB00CF30FC000130FD00DA
:1002CC00FD0B6629FC0B6629FB0B66290000000060
:1002DC00D20A56290130D2000830520203188C2958
:1002EC000808F000F00CF013700888000430FB00D4
:1002FC00CF30FC000130FD00FD0B8229FC0B822964
:10030C00FB0B822900000000D20A72290130D200B6
:10031C00083052020318A8290808F000F00D7010DC
:10032C00700888000430FB00CF30FC000130FD0069
:10033C00FD0B9E29FC0B9E29FB0B9E290000000047
:10034C00D20A8E29FF3088000130D2001E305202B2
:10035C000318C12988090330FB008A30FC00553092
:10036C00FD00FD0BB729FC0BB729FB0BB7290000CF
:10037C000000D20AAC290130D2000E305202031810
:10038C00DA291C30D8001D200330FB008A30FC0019
:10039C005530FD00FD0BD029FC0BD029FB0BD029CF
:1003AC0000000000D20AC3290130D20015305202DD
:1003BC000318F3291830D8001D200330FB008A30B5
:1003CC00FC005530FD00FD0BE929FC0BE929FB0B6A
:1003DC00E92900000000D20ADC290130D2001530D6
:1003EC00520203180C2A1C30D8001D200330FB00CD
:1003FC008A30FC005530FD00FD0B022AFC0B022A52
:10040C00FB0B022A00000000D20AF5290130D200B1
:10041C001430520203183A2A0130D8001D20033040
:10042C00FB008A30FC005530FD00FD0B1B2AFC0B39
:10043C001B2AFB0B1B2A000000000130D3000230EA
:10044C00D4003630D500BA200330FB008A30FC00D3
:10045C005530FD00FD0B302AFC0B302AFB0B302AEB
:10046C0000000000D20A0E2A83168801831288012C
:10047C00861A412A0814861E442A0810061A472A8E
:10048C008814061E4A2A881086194D2A0815861DBE
:10049C00502A08110619532A8815061D562A881148
:1004AC008618592A0816861C5C2A081206185F2A18
:1004BC008816061C622A8812861A672A0618672A6A
:0804CC00682A3E2A1429692A5E
:10053C00203084002F3083120313F0006F30CF0073
:08054C000230D000FA20080083
:1004DE004D34433443344F3420343A342D3429349C
:0204EE000034D8
:1004F000533445344E344134493420342A34323470
:0A0500003034313435342A3400342D
:10050A005434453453345434453420344F345334FA
:10051A00203442344F3454344F3445345334203425
:10052A00413447344F345234413421342134213454
:02053A0000348B
:02400E004A2F37
:00000001FF
