:10000000672BFF3FFF3FFF3FFF00030E8301CD0043
:100010000408CC000A08CE008A0171088316B200D9
:1000200070088312EF001A08A1002108CF008A157A
:100030006A228A1183163208F10083126F08F000D9
:100040004E088A004C0884004D0E8300FF0E7F0E80
:1000500009004E3003138316A0006130A1004E301A
:10006000A200A3013030A400A5014930A6004E3003
:10007000A7004630A800A901AA01AD0183126608B5
:100080008316AE00831267088316AF0083126808D8
:100090008316B000831269088316B1003108FF3A55
:1000A000031D5C283008FF3A031D5C282F08FF3A27
:1000B000031D5C282E08FF3A031D692883126A0875
:1000C000EB00A030EC008A15BF218A110330F0004C
:1000D000080001308316AB00B01F77288030B006CF
:1000E000AB0A83126A0884002D308000EA0A0030CF
:1000F000F00083163106031D872870083006031DA3
:10010000872870082F06031D87282E08003A031D34
:10011000932883126A08EB00A430EC008A15BF21F3
:100120008A11F0010800831631087F3A031DA228C6
:100130003008803A031DA2282F08003A031DA22888
:100140002E08003A031DB02883126A08EB00A6307F
:10015000EC008A15BF218A1183162B08F0000800D5
:100160000030F4000030F5000030F6007F30F7007A
:100170002E08F0002F08F1003008F2003108F300DB
:100180006426013003180030F00070080319E528D8
:1001900083162E08F0002F08F1003008F200310815
:1001A000F3000030F4000030F5002030F60082301B
:1001B000F700FD2570088316AE007108AF007208C5
:1001C000B0007308B100AD03B028031383160030EC
:1001D000F4000030F5002030F6008230F7002E08E1
:1001E000F0002F08F1003008F2003108F300642617
:1001F0000130031C0030F000700803191C2983161D
:100200002E08F0002F08F1003008F2003108F3004A
:10021000CD30F400CC30F5004C30F6007B30F700E8
:10022000FD2570088316AE007108AF007208B0009B
:100230007308B100AD0AE52803138316FF302E05BD
:10024000F500FF302F05F6007F303005F700003055
:100250003105F8007508F0007608F1007708F20023
:100260007808F300F00DF10DF20DF30D7010003071
:10027000AE050030AF050030B005FF30B1057008A5
:10028000AE047108AF047208B0047308B1047F3083
:100290003102F0007008AC000130B10070080319A1
:1002A0005829AE0DAF0DB00DB10D2E10FF3F4F29E7
:1002B0003108303FF00083126A0884007008800023
:1002C000EA0A803083162D06F0008030013A700271
:1002D000031C72298030063AF00080302D0670022F
:1002E00003187B2983126A0884002E308000EA0AF2
:1002F00001308316AA000630AC002C08003A03191E
:10030000C529B1012E08F0002F08F1003008F200D5
:100310003108F300F00DF10DF20DF30D7010F00D3A
:10032000F10DF20DF30D70107008AE07710803188F
:10033000710FAF0772080318720FB0077308031824
:10034000730FB107AE0DAF0DB00DB10D2E1031080A
:10035000303FF00083126A08840070088000EA0AC7
:1003600083162A08003A031DC329AD032D08003A5D
:10037000031DC32983126A0884002E308000EA0A14
:1003800001308316AA00AC037D29FF3083126A076F
:1003900084000008F4007408303A031DD129EA03F0
:1003A000C529FF306A0784000008F40074082E3A5B
:1003B000031DDB29EA0383162D08003A03191E2AC0
:1003C00083126A08840065308000EA0A8030831650
:1003D0002D06F0008030003A70020318F9298312CC
:1003E0006A0884002D308000EA0A83162D08003C3C
:1003F000AD002D08AC002D08093C03180D2A0A3069
:10040000F4002C08F0008A1528228A113030F007F9
:100410006A08840070088000EA0A0A30F400831633
:100420002C08F0008A1528228A117808F000303054
:10043000F0076A08840070088000EA0A0313831238
:100440006A0884008001F00108008A1539228A11A7
:100450008A1539228A118A1539228A115608F00024
:100460000130F70070080319392AF70D7710FF3FA4
:10047000332A7708A6005708F0000130F100700811
:100480000319462AF10D7110FF3F402A7108A70099
:100490005808F0000130F60070080319532AF60DD1
:1004A0007610FF3F4D2A7608A8005908F000013069
:1004B000F50070080319602AF50D7510FF3F5A2AE0
:1004C0007508A9005B08F0000130F40070080319FA
:1004D0006D2AF40D7410FF3F672A7408A4005C08AD
:1004E000F0000130F300700803197A2AF30D73103D
:1004F000FF3F742A7308AE005D08F0000130F2007F
:1005000070080319872AF20D7210FF3F812A7208C2
:10051000A3005508A5005A08A200550884007108D8
:100520007704F0007608F00475087004F100710992
:10053000F0007008800584177108F000F009700859
:1005400080055A08840073087404F0007208F004EF
:10055000F00970088005841770088005550884002C
:1005600075087604F000700880045A088400720848
:1005700080040B272309F000700880058A153922B2
:100580008A11230880040B272309F00070088005D6
:100590008A1539228A11230880040B272309F000C9
:1005A000700880058A1539228A11250884002808D8
:1005B00080042909F00070088005220884002308BF
:1005C00080040B272309F000700880058A15392262
:1005D0008A11230880040B272309F0007008800586
:1005E000250884002809F00070088005260880048A
:1005F00022088400230880040B272309F0007008D8
:1006000080058A1539228A11250884002609F00000
:1006100070088005290880042208840023088004CB
:100620000B272309F000700880052508840029099C
:10063000F0007008800522088400230880040B273E
:100640002309F000700880058A1539228A112308D1
:1006500080040B272309F00070088005250884001A
:100660002908800422088400230880040B2723091A
:10067000F000700880058A1539228A112508840047
:100680002909F000700880052208840023088004EE
:100690000B272309F000700880052508840028082E
:1006A0002904F0002708F0042608F00470088004EC
:1006B00022088400230880040B272309F000700817
:1006C00080058A1539228A110130AA0008008A158E
:1006D000ED218A116E30D0007530D1006C30D2001F
:1006E0006C30D300D4013F30831685008601803002
:1006F0008700880189010E309F0019309900181574
:100700008A154A228A1183168C160B178B1708300C
:100710008312D5000730D6000630D7000530D80048
:100720000430D9000930DA00DB015030DC00013040
:10073000DD0025220C30EE001E250130EE001E25C6
:100740000330FB00FF30FA00FB0BA72BAA2BFA0BA0
:10075000A72BA42B9630FA00FA0BAC2B003005190E
:100760000130F1007108013A031DC72B3030E6005B
:100770004608E7004708E8008A157B218A11013006
:10078000E6000130E7003030E800B426C82B97259A
:10079000C730831692008A15D6228A119630D5006A
:1007A0008A15B4208A118A15AA228A11C7308316A5
:1007B00092008A15D0228A113230D5008A157B200A
:1007C0008A118A15BA228A111215702C8A151B21DA
:1007D0008A11003005190130F1007108013A031D3A
:1007E000292C2F08013A0319282C0130EE001E2570
:1007F0000330FB00FF30FA00FB0BFF2B022CFA0B3F
:10080000FF2BFC2B9630FA00FA0B042C3030E6005C
:100810004608E7004708E8008A157B218A11013065
:10082000E6000130E7003030E800B4263030E60062
:100830004A08E7004B08E8008A157B218A1102303C
:10084000E6000130E7003030E800B4260130AF00A8
:100850002A2C9725782C8A154B218A1100300519EE
:100860000130F1007108013A031D6E2C2F08023A85
:1008700003196D2C0130EE001E250330FB00FF3004
:10088000FA00FB0B442C472CFA0B442C412C9630DD
:10089000FA00FA0B492C3030E6004608E70047081A
:1008A000E8008A157B218A110130E6000130E7005B
:1008B0003030E800B4263030E6004808E700490848
:1008C000E8008A157B218A110230E6000130E7003A
:1008D0003030E800B4260230AF006F2C9725782C1A
:1008E0002108683A0319E62B2108613A03192B2CD9
:1008F000E52B792C0313831277080319092D73084C
:1009000003190E2D720876068039FA00F217F617D1
:10091000A0017208F8007108FC007008FD0074085E
:10092000FD027508031C750FFC027608031C760F88
:10093000F802F801FC01FD01031CA52C0310F20CC8
:10094000F10CF00CF80C0130A0007708F302031C46
:10095000AF2C7E302007F3070318132DB42C7E3004
:100960002007F307031C182D1830FA07FD0DFC0DA6
:10097000F80DF00DF10DF20DA00D7408F0027508E0
:10098000031C750FF1027608031C760FF202760D38
:10099000A004201CCD2C7D14D82C7408F0077508F9
:1009A0000318750FF10776080318760AF2077D1011
:1009B000FA031F307A05031DB62C7B1B7D1CFF2C10
:1009C0000310F00DF10DF20DA00D7408F002750882
:1009D000031C750FF1027608031C760FF202760DE8
:1009E00020040139FD070318FC0A0319F80A031D46
:1009F000FF2CF80CFC0CFD0CF30A0319132DFA1F45
:100A0000F8137808F2007C08F1007D08F00000304F
:100A10001C2D01308A15E2228A111C2D02308A1504
:100A2000A1228A111C2D04308A1588228A111C2DBE
:100A300008308A157A228A110000080003138312F5
:100A4000220884002309F000700880052409F000C2
:100A5000700880052508840027082604F00028086F
:100A6000F0042908F004F00970088005EE1F3A2D03
:100A7000260880046E1F3E2D27088004EE1E422D9E
:100A8000280880046E1E462D290880042208840050
:100A90002A080319502D2409F00070088005522DF2
:100AA00024088004230880040B272309F000700821
:100AB00080052409F00070088005250884002708B7
:100AC0002604F0002808F0042908F004F009700852
:100AD0008005EE1D6D2D260880046E1D712D2708E2
:100AE0008004EE1C752D280880046E1C792D2908C1
:100AF0008004220884002A080319832D2409F000A9
:100B000070088005852D24088004230880040B27A5
:100B10002309F000700880052A080319932D8A150F
:100B200039228A11962D8A15B2228A110800563070
:100B300003138312D500D6012F08033A0319BA2DE7
:100B40000130EE001E250330FB00FF30FA00FB0BE6
:100B5000AA2DAD2DFA0BAA2DA72D9630FA00FA0B6F
:100B6000AF2D3030E6004408E7004508E8008A155C
:100B70007B218A11E6018A15ED208A117008831203
:100B8000D7007108D8000130E6000130E7003030AE
:100B9000E800B4265708F0005808F1000530F400CA
:100BA0000030F5008A1500208A118A15A1218A11CA
:100BB0000030F400C030F5007F30F6008830F700D8
:100BC0007A247008E6007108E7007208E8007308EC
:100BD000E9005930EA002920023003138312E600AD
:100BE0000230E7005930E800B4265530E6008A1597
:100BF000D9218A110330AF00080003138312FB01CF
:100C00007308031D77080319542E72087606FA003C
:100C10007708F3077E30031C112EF3020318592EB8
:100C2000142EF302031C5E2E7208F8007108FC00FB
:100C30007008FD00F817F6170310F201F101F0013A
:100C40001830A0007D1C2E2E7408F00775080318BC
:100C5000750FF10776080318760FF207F20CF10C06
:100C6000F00CF80CFC0CFD0C0310A00B222EF21B58
:100C70003E2EF80DF00DF10DF20DF3037B1B701CF1
:100C8000502EF81F502EF00A0319F10A0319F20A28
:100C9000031D502EF20CF10CF00CF30A0319592E1F
:100CA000FA1FF2130030622E01308A15A1228A1138
:100CB000622E02308A1588228A11622E04308A152B
:100CC0007A228A110000080003138312FA017308C4
:100CD000031D7A147708031DFA147A080319B02E3D
:100CE000033A03197B2E7A18782EF61FAE2EAC2EFF
:100CF000F21FAC2EAE2E72088039FA00F21376087D
:100D00008039F6137A060319892E7A080319AC2E56
:100D1000AE2E770873020319902E031CA42EA82E62
:100D2000760872020319972E031CA42EA82E7508AC
:100D3000710203199E2E031CA42EA82E74087002A3
:100D40000319B02E0318A82EFA080319AE2EAC2EE4
:100D5000FA080319AC2EAE2E031408000310080085
:100D60000314031508000800C62E803003138312F5
:100D7000E600D92EC030E600D92E9430E600D92EF8
:100D8000D430E600D92E8030E600D92E031383122A
:100D90006608013A0319B52E6608023A0319BA2EFD
:100DA0006608033A0319BD2E6608043A0319C02EDB
:100DB000C32E6703F0006608F0077008E6007008AD
:100DC000EE001E25AA01E9016908680784000008F1
:100DD000F00070080319F62E6908680784000008FF
:100DE000EB008A1596228A11E90AE42E0130AA0046
:100DF0000800203420342034203468346F347234B6
:100E00006134723469346F34203420342034203417
:100E100020340034080000000800FF3FFF3FFF3F80
:100E2000FF3FFF3FFF3FFF3FFF3FFF3FFF3FFF3FD2
:100E3000FF3FFF3FFF3FFF3FFF3FFF3FFF3FFF3FC2
:100E4000FF3FFF3FFF3FFF3FFF3FFF3FFF3FFF3FB2
:100E5000FF3FFF3FFF3FFF3FFF3FFF3FFF3FFF3FA2
:100E6000FF3FFF3FFF3FFF3FFF3FFF3FFF3FFF3F92
:100E7000FF3FFF3FFF3FFF3FFF3FFF3FFF3FFF3F82
:100E8000FF3FFF3FFF3FFF3FFF3FFF3FFF3FFF3F72
:100E9000FF3FFF3FFF3FFF3FFF3FFF3FFF3FFF3F62
:100EA000FF3FFF3FFF3FFF3FFF3FFF3FFF3FFF3F52
:100EB000FF3FFF3FFF3FFF3FFF3FFF3FFF3FFF3F42
:100EC000FF3FFF3FFF3FFF3FFF3FFF3FFF3FFF3F32
:100ED000FF3FFF3FFF3FFF3FFF3FFF3FFF3FFF3F22
:100EE000FF3FFF3FFF3FFF3FFF3FFF3FFF3FFF3F12
:100EF000FF3FFF3FFF3FFF3FFF3FFF3FFF3FFF3F02
:100F0000FF3FFF3FFF3FFF3FFF3FFF3FFF3FFF3FF1
:100F1000FF3FFF3FFF3FFF3FFF3FFF3FFF3FFF3FE1
:100F2000FF3FFF3FFF3FFF3FFF3FFF3FFF3FFF3FD1
:100F3000FF3FFF3FFF3FFF3FFF3FFF3FFF3FFF3FC1
:100F4000FF3FFF3FFF3FFF3FFF3FFF3FFF3FFF3FB1
:100F5000FF3FFF3FFF3FFF3FFF3FFF3FFF3FFF3FA1
:100F6000FF3FFF3FFF3FFF3FFF3FFF3FFF3FFF3F91
:100F7000FF3FFF3FFF3FFF3FFF3FFF3FFF3FFF3F81
:100F8000FF3FFF3FFF3FFF3FFF3FFF3FFF3FFF3F71
:100F9000FF3FFF3FFF3FFF3FFF3FFF3FFF3FFF3F61
:100FA000FF3FFF3FFF3FFF3FFF3FFF3FFF3FFF3F51
:100FB000FF3FFF3FFF3FFF3FFF3FFF3FFF3FFF3F41
:100FC000FF3FFF3FFF3FFF3FFF3FFF3FFF3FFF3F31
:100FD000FF3FFF3FFF3FFF3FFF3FFF3FFF3FFF3F21
:100FE000FF3FFF3FFF3FFF3FFF3FFF3FFF3FFF3F11
:100FF000FF3FFF3FFF3FFF3FFF3FFF3FFF3FFF3F01
:1010000003138312FB01FA01F9018030F800FD019E
:10101000F11F1028F109F009F00A0319F10AFD0A7D
:10102000F51F1828F509F409F40A0319F50AFD0A51
:10103000F10CF00C031C25287408F9077508031837
:10104000750FFA070318FB0A0310F01F2D28740808
:10105000FA070318FB0A7508FB07FB0CFA0CF90CDE
:10106000F80C031C18287D1C4028FB09FA09F90913
:10107000F809F80A0319F90A0319FA0A0319FB0A0D
:101080007B08F3007A08F2007908F1007808F00094
:101090000000080003138312A0017208031D6128D9
:1010A0007108F2007008F100F001A0157208031D2C
:1010B00061287108F200F101A011201672080319CD
:1010C0006F282008F302031D031C73280310F21B72
:1010D0007728F00DF10DF20DF30B6728732801301E
:1010E000FC00A1227A280230FC007A227A280430FF
:1010F000FC00DC220800031383161208013FF000F5
:10110000F1010318F10A83125508F400F5010020DB
:101110000630F2007008F4007108F5007208031937
:101120009628F50CF40CF513FF3F8F287408F00097
:10113000F00D7010F00D7010F00D7010F00D7010BB
:1011400030307005F3007408F0007508F100F10C00
:10115000F00CF113F10CF00CF11370089B000F3040
:101160009D0573089D040800031383161208013FB0
:10117000F000F1010318F10A83125508F400F5019B
:1011800000200630F2007008F4007108F5007208C3
:101190000319CF28F50CF40CF513FF3FC828740889
:1011A000F000F00D7010F00D7010F00D7010F00DDB
:1011B000701030307005F3007408F0007508F1000D
:1011C000F10CF00CF113F10CF00CF1137008950018
:1011D0000F309705730897040800031383129F01CB
:1011E000C0309F0483161F179F1783126608F000F4
:1011F000F00D7010F00D7010F00D701070089F045D
:101200001F14C2221F151F1D0729000003291F10CC
:101210000830F2001E08F000F101720803191529C8
:10122000F00DF10D7010FF3F0E2983161E08F0041B
:101230000030F10408000130031383128600D50149
:101240000330550203183B294130FB00FF30FA0000
:10125000FB0B2B292E29FA0B2B292829C330FA0046
:10126000FA0B302900000608F000F00D701070082D
:101270008600D50A20294130FB00FF30FA00FB0B25
:1012800042294529FA0B42293F29C330FA00FA0BBB
:101290004729000008000830031383128600D50197
:1012A0000330550203186B294130FB00FF30FA0070
:1012B000FB0B5B295E29FA0B5B295829C330FA0026
:1012C000FA0B602900000608F000F00CF01370081B
:1012D0008600D50A50294130FB00FF30FA00FB0B95
:1012E00072297529FA0B72296F29C330FA00FA0B9B
:1012F000772900000800031383126708AD0068080F
:10130000AC000A08AB00C922F0002B088A00700864
:1013100003199D296708AD006808AC000A08AB00F6
:10132000C922F0002B088A0066088400700880003B
:10133000E60AE70A0319E80A7B29660884008001A7
:101340000800031383127008F8007108F000F1011F
:10135000F201F301FB01FC019630F300FA01F01FEA
:10136000B729F809F009F80A0319F00AFA17700802
:10137000F1007808F000F801F2014A200800031398
:1013800083126B08ED006D08F100ED0A6C08840013
:10139000EC0A0008F00071088400700880007108F1
:1013A00084000008F0007008031DC3296B08F000DA
:1013B000080003138312E70167086607840000082A
:1013C000F00070080319EC2967086607840000081C
:1013D000EB009622E70ADC29080068300313831229
:1013E000A1000030AF000430C6000A30C70016303C
:1013F000C8000A30C900F930CA000630CB005A30A4
:10140000C4000A30C500080020346D346F347434D1
:101410006F34723420342034673469347234613468
:101420006E3464346F3420340034080020342034A7
:1014300061346E34743469345F3468346F347234B8
:101440006134723469346F3420342034003408003D
:1014500003138312F8010830FC00700DF80D7408B6
:10146000F8020318352AF8070310F00DFC0B2D2A9B
:101470000800083003138312FB00FF30FA00FB0B57
:10148000422A452AFA0B422A3F2A1E30FA00FA0B5A
:10149000472A080003138316981690308312980089
:1014A00083168717071383128C1E592A1A08D9002E
:1014B000532A080041342034543445344E345334D4
:1014C00041344F342034563441344C3445343A346A
:1014D0000034080000300313831698180130F1001F
:1014E0007108003A031D762A00006A2A83124F0809
:1014F00099000800031383127B15FB1F862A013015
:10150000F300F201F101F001FA0DF20CFF300800D6
:1015100003138312FB14FB1F942AFF30F300F20025
:10152000F100F000FA0DF20CFF30080003138312F3
:10153000AA016B08EE008A111E258A150130AA0047
:10154000080003138312F201F101F001F801F30125
:1015500000300800031383160711831212150C3094
:1015600097040800103003138312FA00FA0BB62A0E
:1015700000000800031383168710831212150C3025
:101580009D040800073003138312FA00FA0BC62AE1
:101590000800031383122C088A002D08820008001B
:1015A000031383129B011D129D1208000313831263
:1015B000950117129712080003138312FA1FF213F2
:1015C0000030080003138312FB15FF300800FF3FB3
:02400E00713F00
:00000001FF
