:02000000442991
:10000600103083120313FD00FD0B072800000800C3
:0400160000000800DE
:10001A00083083120313FC002330FD00FD0B132864
:06002A00FC0B1328080086
:1000300083120313B11B1E2886111F288615311B3E
:100040002328061124280615B11A282886102928E5
:100050008614311A2D2806102E280614201832284E
:1000600006163328061286160B208612B1193A2876
:1000700086113B28861531193F28061140280615A0
:10008000B1184428861045288614311849280610CE
:100090004A28061420184E2806164F2806128616DF
:1000A0000B208612201C56280D20572803200800FC
:1000B00083120313F8010830FC00700DF80D74086A
:1000C000F80203186528F8070310F00DFC0B5D28F3
:0200D000080026
:0E00D200831203132B088A002A0882000800FC
:1000E0008312031320103008B100182020140800D8
:1000F00069208A110A128000840AAA0A0319AB0A2D
:08010000F003031D782808003C
:100108009628803083120313AC00A928C030AC00B5
:10011800A9289430AC00A928D430AC00A928803094
:10012800AC00A928831203132C08013A0319852867
:100138002C08023A03198A282C08033A03198D2837
:100148002C08043A0319902893282D03F0002C0852
:10015800F0077008AC007008B10018202010AF013B
:100168002F082E07840000080319C2282F082E071D
:1001780084000008B0007020AF0AB42820140800DA
:1001880083120313AE0103302E020318D2282E085F
:100198002D07840020308000AE0AC7282E082D07BE
:1001A80084008001AE032E082D07AF000A30F4004A
:1001B8002C08F00058207808F0003030F0072F089D
:1001C8008400700880000A30F4002C08F0005820E1
:1001D8007008AC007008003A031DF328F528AE0338
:0401E800D72808000C
:1001EC00831603138612061206108610061186114A
:1001FC0083128612061286110611861006100D2027
:10020C000D200D208614061486160B2086120D2048
:10021C0086160B2086120D2086160B2086120D20BA
:10022C00061086160B2086120D2086160B208612C1
:10023C008610861586160B2086120D208611061444
:10024C0086160B208612061086160B2086120D20A1
:10025C0086160B208612061486160B2086120D208D
:10026C00061086160B2086128615061586140614A3
:0C027C0086160B2086120D2020140800AE
:10028800831603138501860187018801F6200C3047
:10029800B10018200130B100182087010708AC0010
:1002A8002130AD00C4200130AC000130AD00213058
:1002B800AE0084200330FB008A30FC005530FD007E
:1002C800FD0B6429FC0B6429FB0B6429000000006A
:0C02D800070AF000700887005229712905
:02400E004A2F37
:00000001FF
