:02000000562880
:10000800FF00030E8301A5000A08A6008A017008F4
:10001800A0008C1E152841207008A3007008A700B6
:100028004C202008F00026088A00250E8300FF0EC9
:040038007F0E09002E
:0E003C008312031322088A00210882000800A4
:10004A008316031398169030831298008316871725
:10005A00071383128C1E34281A08F0002E28080071
:10006A001E208A110A128000840AA10A0319A20A10
:08007A00F003031D3528080006
:10008200831203131A08A400981C49281812181680
:060092002408F000080044
:10009800831603139818522800004C288312270847
:0400A80099000800B3
:1000AC00831603138501860180308700880189013E
:1000BC0007309F008C160B178B17193099001815E9
:0600CC00252067286828CA
:02400E00412F40
:00000001FF
