:02000000412895
:0E0006008312031321088A00200882000800DC
:0E001400073083120313FD00FD0B0E280800B9
:10002200831203139F01C0309F0483161F179F176B
:1000320083122408F000F00D7010F00D7010F00D16
:10004200701070089F041F140A201F151F1D2B28F3
:10005200000027281F101E08F100F00183161E0859
:08006200F0040030F104080075
:10006A0003208A110A128000840AA00A0319A10A2D
:08007A00F003031D3528080006
:10008200FF30831603138500870186018312A401C2
:10009200112070088312A2007108A3007008860064
:0E00A2007108F200F301720887004728572802
:02400E00492F38
:00000001FF
