:02000000422894
:0E0006008312031322088A00210882000800DA
:1000140003208A110A128000840AA10A0319A20A81
:08002400F003031D0A28080087
:10002C008316031398169030831298008316871743
:10003C00071383128C1E25281A08F0001F280800AD
:10004C008316031398182C280000262883122308E3
:04005C0099000800FF
:0E0060000030831203138C1A0130F0000800E8
:10006E00831203131A08F100981C3F281812181651
:06007E007108F00008000B
:100084000E30831603139F00013085000130850074
:10009400FF30860089018801831288018316811349
:1000A40081309900181516200330FB008A30FC00BB
:1000B4005530FD00FD0B5C28FC0B5C28FB0B5C2819
:1000C40000000000302070080319BF283720700892
:1000D400A0009E2808187028081471280810BF284A
:1000E40088187628881477288810BF2808197C284F
:1000F40008157D280811BF288819822888158328A7
:100104008811BF28081A8828081689280812BF28C9
:10011400881A8E2888168F288812BF28081B9428CE
:10012400081795280813BF28881B9A2888179B2826
:100134008813BF288801BF282008313A03196C2886
:100144002008323A031972282008333A0319782810
:100154002008343A03197E282008353A03198428E4
:100164002008363A03198A282008373A03199028B8
:100174002008383A031996289C280618CA283130D2
:10018400A30026200618C728C4283130A30026203F
:100194008618D5283230A30026208618D228CF28E6
:1001A4003230A30026200619E0283330A30026208D
:1001B4000619DD28DA283330A30026208619EB2817
:1001C4003430A30026208619E828E5283430A3001B
:1001D4002620061AF6283530A3002620061AF3280E
:1001E400F0283530A3002620861A01293630A300D2
:1001F4002620861AFE28FB283630A30026206428F1
:020204000229CD
:02400E004A2F37
:00000001FF
