:020000001628C0
:0E0006008312031321088A00200882000800DC
:1000140003208A110A128000840AA00A0319A10A83
:08002400F003031D0A28080087
:10002C001F3083160313850086018701880189011F
:10003C0007309F0083128601870171308800890187
:10004C000508F100F10CF113F10CF1130730F10577
:10005C006828051835288518352806103628061402
:10006C007D28051C3D28851C3D2806143E280610BD
:10007C007D280518452885184528031046280314A3
:10008C0003184A2806144B2806107D28051C5228F4
:10009C00851C5228031453280310031857280614E0
:1000AC00582806107D280518612885185F28061029
:1000BC006628061466288518652806146628061016
:1000CC007D287D287108013A03192F287108023AFE
:1000DC00031937287108063A03193F287108053AA5
:1000EC0003194C287108033A031959286728262844
:0200FC007E285C
:02400E004A2F37
:00000001FF
