:100000002228FF3FFF3FFF3FFF00030E8301A200B6
:100010000408A1000A08A3008A017008AA008C1E27
:10002000172855207008A0007008A40035202A0861
:10003000F00023088A0021088400220E8300FF0EAE
:100040007F0E090003138316850186018030870027
:100050008801890107309F008C160B178B178130A0
:1000600099001815452033283428003003138316CF
:1000700098180130F1007108003A031D4128000072
:100080003528831224089900080003138316981654
:1000900090308312980083168717071383128C1EE3
:1000A00054281A08A9004E280800031383121A08BE
:1000B000A400981C5D28181218162408F0000800E7
:02400E00723FFF
:00000001FF
