:02000000D22804
:10000600831203132D0886000000881500000000E7
:1000160088110330FC009730FD00FD0B1028FC0B07
:08002600102800000000080092
:0E002E008312031321088A00200882000800B4
:10003C0083120313F8010830FC00700DF80D7408DE
:10004C00F80203182B28F8070310F00DFC0B2328DB
:02005C0008009A
:10005E008312031308110130AD00032008150800A8
:10006E00831203132708023C031C672808112F2054
:10007E002708013A031D48282808803EAA00AA0333
:10008E0050282708023A031D50282808C03EAA000F
:10009E00AA032A08AD0003200815AB01AC012B08FA
:1000AE00290784000008003A031967282B0829073E
:1000BE0084000008AD000320AB0A0319AC0A5628D1
:0200CE00080028
:1000D00083120313A9010330290203187628290883
:1000E0002807840020308000A90A6B2829082807E7
:1000F00084008001A90329082807AA000A30F40017
:100100002708F0001E207808F0003030F0072A0899
:100110008400700880000A30F4002708F0001E20D8
:100120007008A7007008003A031D97289928A903B2
:040130007B28080020
:100134008312031308113830AD0003200630FB008E
:100144001330FC00AD30FD00FD0BA628FC0BA628E7
:0C015400FB0BA6280000000008150800A6
:1001600017208A110A128000840AA00A0319A10A22
:08017000F003031DB028080094
:100178008312031308110C30AD0003200630FB0076
:100188001330FC00AD30FD00FD0BC828FC0BC8285F
:0C019800FB0BC828000000000815080040
:1001A400831603138601870188019A20BC20A601C7
:1001B400260886000608A7002230A800682001301F
:1001C400A7000130A8002230A90037200330FB002B
:1001D4008A30FC005530FD00FD0BEE28FC0BEE28A8
:0E01E400FB0BEE2800000000A60ADA28F8281F
:02400E00492F38
:00000001FF
