:10000000CD29FF3FFF3FFF3F4E3003138312B8005F
:100010006130B9004E30BA00BB013030BC00BD01C8
:100020004930BE004E30BF004630C000C101C201A1
:10003000C5013308C6003408C7003508C8003608B3
:10004000C9004908FF3A031D2F284808FF3A031D3D
:100050002F284708FF3A031D2F284608FF3A031DA3
:1000600039283708CA003830CB0028230330F00085
:1000700008000130C300C81F45288030C806C30AE5
:10008000370884002D308000B70A0030F0004906A0
:10009000031D542870084806031D5428700847069D
:1000A000031D54284608003A031D5D283708CA007E
:1000B0003C30CB002823F001080049087F3A031D9B
:1000C0006B284808803A031D6B284708003A031D37
:1000D0006B284608003A031D75283708CA003E30D1
:1000E000CB0028234308F00008000030F400003063
:1000F000F5000030F6007F30F7004608F0004708B2
:10010000F1004808F2004908F300D8220130031832
:100110000030F00070080319A8284608F0004708CE
:10012000F1004808F2004908F3000030F400003004
:10013000F5002030F6008230F70077227008C60004
:100140007108C7007208C8007308C900C503752884
:100150000030F4000030F5002030F6008230F70067
:100160004608F0004708F1004808F2004908F3008B
:10017000D8220130031C0030F00070080319DB287E
:100180004608F0004708F1004808F2004908F3006B
:10019000CD30F400CC30F5004C30F6007B30F70069
:1001A00077227008C6007108C7007208C80073087B
:1001B000C900C50AA828FF304605F500FF304705ED
:1001C000F6007F304805F70000304905F800750853
:1001D000F0007608F1007708F2007808F300F00DDF
:1001E000F10DF20DF30D70100030C6050030C7059B
:1001F0000030C805FF30C9057008C6047108C7047F
:100200007208C8047308C9047F304902F0007008FE
:10021000C4000130C900700803191529C60DC70DA7
:10022000C80DC90D4610FF3F0C294908303FF000AA
:100230003708840070088000B70A80304506F00057
:100240008030013A7002031C2D298030063AF000FC
:1002500080304506700203183429370884002E3098
:100260008000B70A0130C2000630C4004408003ADA
:1002700003197A29C9014608F0004708F100480827
:10028000F2004908F300F00DF10DF20DF30D7010BE
:10029000F00DF10DF20DF30D70107008C607710826
:1002A0000318710FC70772080318720FC807730885
:1002B0000318730FC907C60DC70DC80DC90D461029
:1002C0004908303FF0003708840070088000B70A02
:1002D0004208003A031D7829C5034508003A031D6A
:1002E0007829370884002E308000B70A0130C20018
:1002F000C4033629FF30370784000008F40074086F
:10030000303A031D8529B7037A29FF303707840067
:100310000008F40074082E3A031D8F29B70345081E
:10032000003A0319C8293708840065308000B70AED
:1003300080304506F0008030003A70020318A8298A
:10034000370884002D308000B70A4508003CC500FE
:100350004508C4004508093C0318BA290A30F400CE
:100360004408F00042233030F0073708840070085A
:100370008000B70A0A30F4004408F00042237808ED
:10038000F0003030F0073708840070088000B70AAA
:10039000370884008001F00108001F300313831622
:1003A0008500860187018801890107309F0083123B
:1003B0002D08B3002E08B4002F08B5003008B60091
:1003C0002130B7000420A430AD007030AE004530BD
:1003D000AF008230B0000130F0000130F000013099
:1003E000F000782380303104F5007508B100063044
:1003F000F4007508F00074080319022AF00CF013D9
:10040000FF3FFC2970080139F0000030F100003096
:10041000F2000030F3000030F105F205F30570083A
:100420007104720473040319152A0508B200B20C92
:10043000B213B20CB213642A01300505F00003199F
:100440002A2A003085180130F400740803192A2A7A
:1004500006142B2A0610752A01300505F000031D2D
:10046000382A003085180130F400740803193A2A3C
:1004700006143B2A0610752A01300505F000031901
:10048000432A851C4D2A05184C2A00308518013056
:10049000F4007408031D4D2A4F2A0614502A061032
:1004A000752A01300505F00003195F2A0030851810
:1004B0000130F400740803195F2A0610602A06143C
:1004C000752AFF308600752A3208013A03191C2A62
:1004D0003208023A03192C2A3208033A03193C2A3B
:1004E0003208043A0319512A612A152A762A03137D
:1004F0008312FB017308031D77080319CE2A7208C3
:100500007606FA007708F3077E30031C8B2AF30285
:100510000318D12A8E2AF302031CD42A7208F80089
:100520007108FC007008FD00F817F6170310F201BF
:10053000F101F0011830A0007D1CA82A7408F00712
:1005400075080318750FF10776080318760FF20780
:10055000F20CF10CF00CF80CFC0CFD0C0310A00BD1
:100560009C2AF21BB82AF80DF00DF10DF20DF303E1
:100570007B1B701CCA2AF81FCA2AF00A0319F10A49
:100580000319F20A031DCA2AF20CF10CF00CF30A4B
:100590000319D12AFA1FF2130030D62A01306F2333
:1005A000D62A02305323D62A0430612300000800E3
:1005B00003138312FA017308031D7A147708031DCD
:1005C000FA147A080319242B033A0319EF2A7A182C
:1005D000EC2AF61F222B202BF21F202B222B720835
:1005E0008039FA00F21376088039F6137A06031977
:1005F000FD2A7A080319202B222B7708730203198E
:10060000042B031C182B1C2B7608720203190B2BCE
:10061000031C182B1C2B750871020319122B031CC9
:10062000182B1C2B740870020319242B03181C2B85
:10063000FA080319222B202BFA080319202B222B4E
:100640000314080003100800031403150800080031
:10065000031383124A08CC004C08F100CC0A4B0863
:100660008400CB0A0008F000710884007008800044
:10067000710884000008F0007008031D2C2B4A0844
:10068000F000080003138312F8010830FC00700D1D
:10069000F80D7408F80203184F2BF8070310F00D3B
:1006A000FC0B472B080003138312FB14FB1F5F2B6B
:1006B000FF30F300F200F100F000FA0DF20CFF3011
:1006C0000800031383127B15FB1F6D2B0130F30011
:1006D000F201F101F001FA0DF20CFF3008000313F2
:1006E0008312F201F101F001F801F301003008007A
:1006F000203003138312F0004E30F100F201F301B9
:100700000800FF3FFF3FFF3FFF3FFF3FFF3FFF3F2F
:02400E0002208E
:00000001FF
