:020000002C28AA
:10000800FF00030E8301A4000A08A5008A010B1D46
:100018001228A20A0319A30A0B11810125088A00D4
:0A002800240E8300FF0E7F0E090076
:0E0032008312031321088A00200882000800B0
:1000400019208A110A128000840AA00A0319A10A41
:08005000F003031D2028080045
:100058000B11073083160313810006309F008601B9
:100068000F30831286008101A0308B00A201A3010A
:10007800061400302306031D43284C302206031DB6
:0C00880048288609A201A3013D28492850
:02400E004A2F37
:00000001FF
