:020000000629CF
:0E000600533083120313FD00FD0B0728080082
:10001400243083120313FC00B530FD00FD0B1028BF
:0A002400FC0B10280000000008008B
:0C002E00000000000000000000000800BE
:10003A0083120313B91B2328051124280515391B1C
:10004A002828851129288515B91A2D2885122E28C0
:10005A008516391A32280910332809143118372815
:10006A00091538280911891417208910B9193F2848
:10007A000511402805153919442885114528851583
:10008A00B918492885124A28851639184E280910A0
:10009A004F280914311853280915542809118914AD
:1000AA0017208910311C5B280A205C2803200800CD
:0E00BA008312031333088A0032088200080004
:1000C8008312031331103808B9001D2031140800B9
:1000D800831603138910091109108512851105115A
:1000E80083128910091105118511851209100A203A
:1000F8000A200A20851609148914172089100A2055
:100108008914172089100A208914172089100A20B9
:1001180009108914172089100A20891417208910BA
:10012800851205158914172089100A20051109144C
:1001380089141720891009108914172089100A209A
:1001480089141720891009148914172089100A2086
:1001580009108914172089100515851585160914A5
:0C0168008914172089100A2031140800A7
:10017400CC28803083120313B400DF28C030B400CD
:10018400DF289430B400DF28D430B400DF28803076
:10019400B400DF28831203133408013A0319BB287F
:1001A4003408023A0319C0283408033A0319C3284F
:1001B4003408043A0319C628C9283503F000340862
:1001C400F0077008B4007008B9001D203110B701A1
:1001D40037083607840000080319F828370836075B
:1001E40084000008B8006420B70AEA283114080023
:1001F4005D208A110A128000840AB20A0319B30A24
:08020400F003031DFA280800B5
:10020C004C3083120313A0004530A1004430A200EF
:10021C005330A3002030A4004F30A5004630A60078
:10022C004630A700A8014C30A9004530AA00443044
:10023C00AB005330AC002030AD004F30AE004E3030
:10024C00AF00B0010E3083169F0085018601870137
:10025C00880189016C200C30B9001D20FF3088000A
:10026C000130B9001D200130B4000130B500293037
:10027C00B600BA201A30FB005E30FC006E30FD0078
:10028C00FD0B4629FC0B4629FB0B46290000880177
:10029C000130B9001D200230B4000130B50020300F
:1002AC00B600BA201A30FB005E30FC006E30FD0048
:1002BC00FD0B5E29FC0B5E29FB0B5E29000034292B
:0202CC006629A1
:02400E004A2F37
:00000001FF
