:020000001628C0
:0E0006008312031321088A00200882000800DC
:1000140003208A110A128000840AA00A0319A10A83
:08002400F003031D0A28080087
:10002C0083160313850186018030870088018901BE
:10003C0007309F00831285018601870188018901A1
:10004C0083168C160B178B178312A201A301A40124
:10005C00A501A601A701A801A90180302506F00081
:10006C0080307002031D442800302402031D4428F4
:10007C00C3302302031D44285030220203186A287F
:10008C0006140D30FD00FD0B492806100830FD004C
:10009C00FD0B4E28000000002208F0002308F100A0
:1000AC002408F2002508F300F00A0319F10A0319D9
:1000BC00F20A0319F30A7008A2007108A30072086F
:1000CC00A4007308A500332880302906F000803086
:1000DC007002031D7B2800302802031D7B28C330CF
:1000EC002702031D7B28503026020318A1288614F2
:1000FC000D30FD00FD0B802886100830FD00FD0B37
:10010C008528000000002608F0002708F1002808C8
:10011C00F2002908F300F00A0319F10A0319F20A94
:10012C000319F30A7008A6007108A7007208A8004A
:0A013C007308A9006A282A28A228E7
:02400E004A2F37
:00000001FF
