:040000008A15002835
:10000800FF00030E8301C4000A08C5008A011A080C
:10001800A2002208EF00D52645088A00440E830076
:06002800FF0E7F0E09002F
:04002E0000000800C6
:10003200103083120313FD00FD0B1D280000080081
:10004200083083120313FC002330FD00FD0B272828
:06005200FC0B272808004A
:1000580083120313EE1B32288813332888176E1B6C
:100068003728081338280817EE1A3C2888123D2824
:1000780088166E1A41280812422808162F18462892
:10008800091447280910891417208910EE194E28D9
:1000980088134F2888176E195328081354280817EF
:1000A800EE1858288812592888166E185D280812E4
:1000B8005E2808162F186228091463280910891465
:1000C800172089102F1C6A2821206B281920080066
:0E00D800F201F101F001F801F301003008001F
:1000E6007B15FB1F7D280130F300F201F101F001C1
:0800F600FA0DF20CFF300800C6
:0800FE00FA1FF21300300800A4
:10010600FB14FB1F8D28FF30F300F200F100F00016
:08011600FA0DF20CFF300800A5
:0E011E00831203132E088A002D0882000800A9
:10012C0083120313F8010830FC00700DF80D7408ED
:10013C00F8020318A328F8070310F00DFC0B9B28FA
:02014C000800A9
:10014E00A0017208031DBC287108F2007008F100AE
:10015E00F001A0157208031DBC287108F200F10110
:10016E00A011201672080319CA282008F302031DD5
:10017E00031CCE280310F21BD228F00DF10DF20D48
:10018E00F30BC228CE280130FC006C20D52802309B
:0E019E00FC007320D5280430FC007F200800F0
:1001AC0083120313FB017308031D770803192D2910
:1001BC0072087606FA007708F3077E30031CEA28EB
:1001CC00F30203183029ED28F302031C33297208BB
:1001DC00F8007108FC007008FD00F817F617031002
:1001EC00F201F101F0011830A0007D1C0729740800
:1001FC00F00775080318750FF10776080318760FCA
:10020C00F207F20CF10CF00CF80CFC0CFD0C0310CA
:10021C00A00BFB28F21B1729F80DF00DF10DF20DB8
:10022C00F3037B1B701C2929F81F2929F00A0319D9
:10023C00F10A0319F20A031D2929F20CF10CF00C36
:10024C00F30A03193029FA1FF21300303529013053
:10025C006C203529023083203529043073200000AE
:02026C00080088
:10026E0083120313FA017308031D7A147708031D12
:10027E00FA147A0803198329033A03194E297A18B6
:10028E004B29F61F81297F29F21F7F2981297208A8
:10029E008039FA00F21376088039F6137A060319BC
:1002AE005C297A0803197F298129770873020319BB
:1002BE006329031C77297B297608720203196A29A0
:1002CE00031C77297B297508710203197129031CF8
:1002DE0077297B29740870020319832903187B2957
:1002EE00FA08031981297F29FA0803197F29812920
:1002FE000314080003100800031403150800080077
:10030E00831203136C08F2007208F100F20A6D08F2
:10031E00F000ED0A700884000008F00071088400F7
:10032E007008800071088400000803199F298B292A
:06033E006C08F00008004D
:0E034400073083120313FD00FD0BA6290800ED
:06035200FB15FF3008005E
:10035800831203132F106C08EE002C202F140800B2
:10036800831203137408003A031DCF297508003A55
:10037800031DCF297608003A031DCF297708003AD4
:10038800031DCF29FF30F000FF30F1007F30F2006D
:10039800FF30F300080083120313770803195E2A5D
:1003A80073080319612A720876068039FA00F21771
:1003B800F617A0017208F8007108FC007008FD002B
:1003C8007408FD027508031C750FFC027608031CEF
:1003D800760FF802F801FC01FD01031CFA2903104D
:1003E800F20CF10CF00CF80C0130A0007708F302C5
:1003F800031C042A7E302007F3070318642A092AFD
:100408007E302007F307031C672A1830FA07FD0D12
:10041800FC0DF80DF00DF10DF20DA00D7408F002B1
:100428007508031C750FF1027608031C760FF2029B
:10043800760DA004201C222A7D142D2A7408F007AA
:1004480075080318750FF10776080318760AF2077E
:100458007D10FA031F307A05031D0B2A7B1B7D1CB8
:10046800542A0310F00DF10DF20DA00D7408F002DE
:100478007508031C750FF1027608031C760FF2024B
:10048800760D20040139FD070318FC0A0319F80A40
:10049800031D542AF80CFC0CFD0CF30A0319642AFA
:1004A800FA1FF8137808F2007C08F1007D08F000C4
:1004B8000030692A0130A921692A02306C20692A92
:0E04C80004308320692A0830732000000800E9
:1004D600831203137008F8007108F000F101F201AD
:1004E600F301FB01FC019630F300FA01F01F812AAB
:1004F600F809F009F80A0319F00AFA177008F1006A
:0C0506007808F000F801F201A7200800BE
:1005120083120313FB01FA01F9018030F800F10C98
:10052200F00C031C9D2A7408F90775080318750F4F
:10053200FA070318FB0A0310F01FA52A7408FA072A
:1005420075080318750FFB07FB0CFA0CF90CF80C75
:10055200031C902A7B08F3007A08F2007908F10064
:060562007808F00008001B
:10056800831203139F01C0309F0483161F179F1720
:1005780083125508F000F00D7010F00D7010F00D9A
:10058800701070089F041F14A2211F151F1DCE2A6A
:100598000000CA2A1F101E08F100F00183161E0869
:0805A800F0040030F10408002A
:1005B00083120313EA01EB015508DC005608DD0045
:1005C0005708DE005808DF005F08FF3A031DF22AD3
:1005D0005E08FF3A031DF22A5D08FF3A031DF22A66
:1005E0005C08FF3A031D032B5908EC004E30E00075
:1005F0006130E1004E30E200E3016030ED00872120
:100600000330F00008000130DA00DE1F0F2B8030CD
:10061000DE06DA0A590884002D308000D90A00303D
:10062000F0005F06031D1E2B70085E06031D1E2BC7
:1006300070085D06031D1E2B5C08003A031D2A2B63
:100640005908EC003030E400E5016430ED0087210A
:10065000F00108005F08FF3A031D382B5E08003ADE
:10066000031D382B5D08003A031D382B5C08003A47
:10067000031D492B5908EC004930E6004E30E700D5
:100680004630E800E9016630ED0087215A08F000A5
:1006900008000030F4000030F5000030F6007F3034
:1006A000F7005C08F0005D08F1005E08F2005F08EA
:1006B000F3003721013003180030F00070080319EF
:1006C0007C2B5C08F0005D08F1005E08F2005F081A
:1006D000F3000030F4000030F5002030F6008230E6
:1006E000F700D6207008DC007108DD007208DE001B
:1006F0007308DF00EB03492B0030F4000030F500F5
:100700002030F6008230F7005C08F0005D08F10050
:100710005E08F2005F08F30037210130031C00304F
:10072000F00070080319AF2B5C08F0005D08F100C1
:100730005E08F2005F08F300CD30F400CC30F50025
:100740004C30F6007B30F700D6207008DC007108D2
:10075000DD007208DE007308DF00EB0A7C2BFF303F
:100760005C05F500FF305D05F6007F305E05F700A3
:1007700000305F05F8007508F0007608F100770892
:10078000F2007808F300F00DF10DF20DF30D70108A
:100790000030DC050030DD050030DE05FF30DF0510
:1007A0007008DC047108DD047208DE047308DF04DD
:1007B0007F305F02F0007008DB000130DF0070085E
:1007C000F4005C08F0005D08F1005E08F2005F08CC
:1007D000F30074080319F32BF00DF10DF20DF30D76
:1007E0007010FF3EEA2B7008DC007108DD00720813
:1007F000DE007308DF005F08303EF0005908840017
:1008000070088000D90A80306B06F0008030013A11
:100810007002031C142C8030063AF00080306B0606
:100820007002031C142C1B2C590884002E308000ED
:10083000D90A0130EA000630DB005B08003A0319F0
:10084000792CDF015C08F0005D08F1005E08F20021
:100850005F08F300F00DF10DF20DF30D7010F00DC7
:10086000F10DF20DF30D70105C08F0075D08031830
:100870005D0FF1075E0803185E0FF2075F080318AB
:100880005F0FF3077008DC007108DD007208DE00FE
:100890007308DF005C08F0005D08F1005E08F200FC
:1008A0005F08F300F00DF10DF20DF30D70107008FC
:1008B000DC007108DD007208DE007308DF005F08ED
:1008C000303EF0005908840070088000D90A6A0898
:1008D000003A031D772CEB036B08003A031D772CBD
:1008E000590884002E308000D90A0130EA00DB0369
:1008F0001D2CFF30590784000008303A031D822C5C
:10090000D903792CFF305907840000082E3A031DC3
:100910008A2CD9036B08003A0319C32C59088400A8
:1009200065308000D90A80306B06F0008030003AD4
:1009300070020318A32C590884002D308000D90AB6
:100940006B08003CEB006B08DB006B08093C0318EC
:10095000B52C0A30F4005B08F00096203030F00728
:100960005908840070088000D90A0A30F4005B0836
:10097000F00096207808F0003030F0075908840025
:1009800070088000D90A590884008001F00108002D
:1009900083120313D6015608550784000008031973
:1009A000D92C5608550784000008EC00AC21D60A63
:0409B000CB2C080044
:1009B400EC2C803083120313D500FF2CC030D500FB
:1009C400FF2C9430D500FF2CD430D500FF2C803080
:1009D400D500FF2C831203135508013A0319DB2CAD
:1009E4005508023A0319E02C5508033A0319E32C7D
:1009F4005508043A0319E62CE92C5603F00055086F
:100A0400F0077008D5007008EE002C202F10D801D4
:100A140058085707840000080319182D5808570769
:100A240084000008EC00AC21D80A0A2D2F14080019
:100A3400831203135608AD005708AE008F208A11A5
:100A44000A12F00070080319382D5608AD00570833
:100A5400AE008F208A110A12F00055088400700835
:100A64008000D50AD60A0319D70A1A2D550884001E
:040A740080010800F5
:100A78000130831203138600F20103307202031857
:100A8800562D4130FC00EE30FD00FD0B492DFC0BCE
:100A9800492D00000608F000F00D7010700886005F
:100AA800F20A412D4130FC00EE30FD00FD0B5A2DBD
:080AB800FC0B5A2D00000800A0
:100AC000831603130711831212150C3097040800C4
:0C0AD000831203139501171297120800FF
:100ADC00831603131208013EF000F1010318F10A0A
:100AEC0083124608F400F50189220630F2007008E2
:100AFC00F4007108F50072080319892DF50CF40C3B
:100B0C00F513FF3E822D0430F1007408F0007108DB
:100B1C000319942DF00D7010FF3E8E2D83120313CC
:100B2C0030307005F3007408F0007508F100F10C1A
:100B3C00F00CF113F10CF00CF11370089B000F305A
:080B4C009D0573089D040800DB
:100B5400831603138710831212150C309D040800AA
:100B64000830831203138600F20103307202031863
:100B7400CC2D4130FC00EE30FD00FD0BBF2DFC0BF5
:100B8400BF2D00000608F000F00CF013700886007A
:100B9400F20AB72D4130FC00EE30FD00FD0BD02DE4
:080BA400FC0BD02D000008003D
:100BAC00831203132108033A0319F02D0130EE00D0
:100BBC002C200330FC009730FD00FD0BE32DFC0BCB
:100BCC00E32D000000003030D5002B08D6002C0897
:100BDC00D7001A25D501B42270088312C6007108FB
:100BEC00C7000130D5000130D6003030D700DA24F0
:100BFC004608F0004708F1000530F4000030F5001D
:100C0C0089226B220030F400C030F5007F30F600F2
:100C1C008830F700B4217008D5007108D60072082E
:100C2C00D7007308D8004830D900D8220230D5003C
:100C3C000230D6004830D700DA242930D500C82439
:060C4C000330A1000800C6
:100C52008F208A110A128000840AAD0A0319AE0A93
:080C6200F003031D292E080018
:100C6A0083160313981690308312980083168717F9
:100C7A00071383128C1E442E1A08F0003E2E080019
:0C0C8A00831203139B011D129D12080031
:100C9600831603131208013EF000F1010318F10A4E
:100CA60083124608F400F50189220630F200700826
:100CB600F4007108F50072080319662EF50CF40CA1
:100CC600F513FF3E5F2E0430F1007408F000710842
:100CD6000319712EF00D7010FF3E6B2E8312031355
:100CE60030307005F3007408F0007508F100F10C5F
:100CF600F00CF113F10CF00CF113700895000F30A5
:080D060097057308970408002B
:100D0E00831603138910091008128812081388130A
:100D1E0083128910091088130813881208122120D3
:100D2E0021202120881608168914172089102120C9
:100D3E008914172089102120891417208910212049
:100D4E000812891417208910212089141720891060
:100D5E0088128817891417208910212088130816E5
:100D6E008914172089100812891417208910212040
:100D7E00891417208910081689141720891021202C
:100D8E000812891417208910881708178816081654
:0C0D9E0089141720891021202F14080050
:100DAA00831603139818DB2E0000D52E83126F08C2
:040DBA009900080094
:1010000083120313A1016830A2000130A30007304E
:10101000A4001130A5000730A600F030A70006306C
:10102000A8005630A900AA01DF30AB000630AC00A2
:101030003F30831685008601803087008801890152
:101040000E309F001930990018158A1135268A151F
:1010500083168C160B178B178A1187268A150C306E
:10106000EE008A112C208A150130EE008A112C2006
:101070008A150330FC009730FD00FD0B3D28FC0B6A
:101080003D2800000000051D58283030D5002308F9
:10109000D6002408D7008A111A258A150130D500F8
:1010A0000130D6003030D7008A11DA248A155B2847
:1010B0008A11D6258A1512109210C7308316920015
:1010C0008A1168258A158A1160258A159630C6000E
:1010D0008A114B268A1512109210C730831692007F
:1010E0008A1145268A158A11AA258A159630C600C6
:1010F0008A116E258A15121507298A113C258A1531
:10110000051DBC282108013A0319BB280130EE0057
:101110008A112C208A150330FC009730FD00FD0B4E
:101120008F28FC0B8F28000000003030D5002308EA
:10113000D6002408D7008A111A258A150130D50057
:101140000130D6003030D7008A11DA248A153030C9
:10115000D5002508D6002608D7008A111A258A1539
:101160000230D5000130D6003030D7008A11DA24A1
:101170008A150130A100BF288A11D6258A151029A9
:101180008A11B2258A15051DFF282108023A031984
:10119000FE280130EE008A112C208A150330FC0055
:1011A0009730FD00FD0BD228FC0BD2280000000078
:1011B0003030D5002308D6002408D7008A111A251C
:1011C0008A150130D5000130D6003030D7008A11A1
:1011D000DA248A153030D5002708D6002808D70031
:1011E0008A111A258A150230D5000130D600303018
:1011F000D7008A11DA248A150230A10002298A1147
:10120000D6258A1510298A11D6258A151029220873
:10121000683A03197D282208613A0319C028032976
:041220007C281129EC
:100DBE00203441342034543445344E345334413489
:100DCE004F342034563441344C3445343A34203484
:020DDE000034DF
:100DE0002034203461346E34743469345F346834B0
:100DF0006F3472346134723469346F342034203487
:020E00000034BC
:100E020020346D346F3474346F3472342034673468
:100E12006934723461346E3464346F342034003493
:100E2200203420342034203468346F3472346134F6
:100E3200723469346F342034203420342034003446
:02400E00412F40
:00000001FF
