:100000004E28FF3FFF3FFF3F03138312FB01FA011E
:10001000F9018030F800FD01F11F1428F109F00901
:10002000F00A0319F10AFD0AF51F1C28F509F40965
:10003000F40A0319F50AFD0AF10CF00C031C292837
:100040007408F90775080318750FFA070318FB0AF7
:100050000310F01F31287408FA070318FB0A75080B
:10006000FB07FB0CFA0CF90CF80C031C1C287D1C7C
:100070004428FB09FA09F909F809F80A0319F90AE9
:100080000319FA0A0319FB0A7B08F3007A08F20045
:100090007908F1007808F000000008001F30031311
:1000A00083168500860187018801890107309F003A
:1000B000831287018B1312109210C730831692009F
:1000C000FE20F620A10184201215A101BD2091017E
:1000D000A001FA302002031882282008A100BD20C8
:1000E00091010D30FB00FF30FA00FB0B78287B28D4
:1000F000FA0B78287528F330FA00FA0B7D280000F7
:10010000A00A692882288328031383161208013F56
:10011000F000F1010318F10A83122108F400F5013F
:1001200004200630F2007008F4007108F50072082F
:1001300003199F28F50CF40CF513FF3F9828740859
:10014000F000F00D7010F00D7010F00D7010F00D4B
:10015000701030307005F3007408F0007508F1007D
:10016000F10CF00CF113F10CF00CF1137008950088
:100170000F309705730897040800031383161208BD
:10018000013FF000F1010318F10A83122108F40085
:10019000F50104200630F2007008F4007108F50043
:1001A00072080319D828F50CF40CF513FF3FD12879
:1001B0007408F000F00D7010F00D7010F00D70105C
:1001C000F00D701030307005F3007408F000750801
:1001D000F100F10CF00CF113F10CF00CF1137008BC
:1001E00095000F30970573089704080003138316D2
:1001F0000711831212150C309704080003138312A1
:100200009501171297120800FF3FFF3FFF3FFF3F86
:02400E00713F00
:00000001FF
