:02000000C32C0F
:0C000600000000000000000000000800E6
:10001200243083120313FC00B530FD00FD0B0F28C2
:0A002200FC0B0F280000000008008E
:0E002C00533083120313FD00FD0B1A28080049
:0E003A00F201F101F001F801F30100300800BD
:10004800FB14FB1F2E28FF30F300F200F100F00034
:08005800FA0DF20CFF30080064
:1000600083120313E61B3628861137288615661B74
:100070003B2806113C280615E61A40288610412820
:100080008614661A45280610462806143F184A2882
:1000900006164B280612861603208612E6195228E9
:1000A00086115328861566195728061158280615F3
:1000B000E6185C2886105D288614661861280610EC
:1000C000622806143F186628061667280612861648
:1000D000032086123F1C6E2809206F281620080076
:1000E0007B15FB1F7A280130F300F201F101F001CA
:0800F000FA0DF20CFF300800CC
:0800F800FA1FF21300300800AA
:0E010000831203133E088A003D0882000800A7
:10010E00831203133F106408E60030203F140800EA
:10011E00243083120313FD00FD0B9328000008000A
:10012E0083120313F8010830FC00700DF80D7408EB
:10013E00F8020318A428F8070310F00DFC0B9C28F6
:02014E000800A7
:10015000831603139818AE280000A8288312640899
:0401600099000800FA
:10016400A0017208031DC7287108F2007008F1008D
:10017400F001A0157208031DC7287108F200F101EF
:10018400A011201672080319D5282008F302031DB4
:10019400031CD9280310F21BDD28F00DF10DF20D1C
:1001A400F30BCD28D9280130FC001D20E0280230B3
:0E01B400FC007020E0280430FC007C200800D5
:1001C20083120313FA017308031D7A147708031DBF
:1001D200FA147A0803192D29033A0319F8287A1810
:1001E200F528F61F2B292929F21F29292B29720804
:1001F2008039FA00F21376088039F6137A06031969
:1002020006297A08031929292B2977087302031969
:100212000D29031C212925297608720203191429A4
:10022200031C212925297508710203191B29031CA6
:10023200212925297408700203192D29031825295B
:10024200FA0803192B292929FA08031929292B2924
:100252000314080003100800031403150800080023
:10026200831203136408F2007208F100F20A6508AF
:10027200F000E50A700884000008F00071088400AC
:100282007008800071088400000803194929352983
:060292006408F000080002
:1002980083120313FB017308031D77080319A329AD
:1002A80072087606FA007708F3077E30031C602987
:1002B800F3020318A6296329F302031CA92972086B
:1002C800F8007108FC007008FD00F817F617031015
:1002D800F201F101F0011830A0007D1C7D2974089D
:1002E800F00775080318750FF10776080318760FDD
:1002F800F207F20CF10CF00CF80CFC0CFD0C0310DE
:10030800A00B7129F21B8D29F80DF00DF10DF20DDE
:10031800F3037B1B701C9F29F81F9F29F00A031900
:10032800F10A0319F20A031D9F29F20CF10CF00CD3
:10033800F30A0319A629FA1FF2130030AB2901307A
:100348001D20AB2902302420AB2904307020000086
:0203580008009B
:10035A008316031398169030831298008316871712
:10036A00071383128C1EBC291A08F000B62908004C
:10037A0083120313D901570884000008D8005808CB
:10038A00003A0319D2295808E400A820D90A5908C2
:0C039A00570784000008D800C4290800A0
:1003A600831203137008F8007108F000F101F201DE
:1003B600F301FB01FC019630F300FA017008F1002D
:0C03C6007808F000F801F201B2200800F5
:1003D200831203139F01C0309F0483161F179F17B8
:1003E20083125708F000F00D7010F00D7010F00D30
:1003F200701070089F041F148F201F151F1D032AE1
:100402000000FF291F101E08F100F00183161E08CC
:08041200F0040030F1040800C1
:10041A00831203135708F2007208840000080319B4
:10042A00182AF20A112A7208F100F20A5808F00092
:10043A00D80A700884000008F00071088400700867
:10044A00800071088400000803192C2A182A57080A
:04045A00F0000800A6
:10045E0083160313861206120610861006118611D5
:10046E0083128612061286110611861006100920B6
:10047E0009200920861406148616032086120920E8
:10048E00861603208612092086160320861209205E
:10049E000610861603208612092086160320861261
:1004AE0086108615861603208612092086110614DC
:1004BE008616032086120610861603208612092041
:1004CE00861603208612061486160320861209202D
:1004DE000610861603208612861506158614061437
:0C04EE0086160320861209203F14080027
:1004FA0080208A110A128000840ABD0A0319BE0AE2
:08050A00F003031D7D2A080027
:1005120083120313E201E3015708DE005808DF00EB
:100522005908E0005A08E1006108FF3A031DA32AB6
:100532006008FF3A031DA32A5F08FF3A031DA32A9E
:100542005E08FF3A031DAD2A5B08E4002B30E5008C
:1005520031210330F000822C0130DC00E01FBC2A84
:1005620080306006F0007008E000DC0A5B0884005E
:100572002D308000DB0A0030F0006106031DCB2A1B
:1005820070086006031DCB2A70085F06031DCB2A84
:100592005E08003A031DD42A5B08E4003730E50008
:1005A2003121F001822C6108FF3A031DE22A600822
:1005B200003A031DE22A5F08003A031DE22A5E08A0
:1005C200003A031DEC2A5B08E4003930E5003121D2
:1005D2005C08F000822C0030F4000030F50000309E
:1005E200F6007F30F7005E08F0005F08F100600857
:1005F200F2006108F300E120013003180030F0003E
:10060200700803191F2B5E08F0005F08F1006008F4
:10061200F2006108F3000030F4000030F5002030F1
:10062200F6008230F7004C217008DE007108DF000E
:100632007208E0007308E100E303EC2A0030F400E2
:100642000030F5002030F6008230F7005E08F0003E
:100652005F08F1006008F2006108F300E120013058
:10066200031C0030F00070080319522B5E08F000E2
:100672005F08F1006008F2006108F300CD30F40079
:10068200CC30F5004C30F6007B30F7004C2170087E
:10069200DE007108DF007208E0007308E100E30A7F
:1006A2001F2BFF305E05F800FF305F05F9007F3039
:1006B2006005FA0000306105FB007808F400790853
:1006C200F5007A08F6007B08F700F40DF50DF60D3B
:1006D200F70D741000305E05F00000305F05F10088
:1006E20000306005F200FF306105F3007008DE00A3
:1006F2007108DF007208E0007308E10074085E040C
:10070200F00075085F04F10076086004F2007708D3
:100712006104F3007008DE007108DF007208E00077
:100722007308E1007F306102F0007008DD000130E3
:10073200E1007008F4005E08F0005F08F100600854
:10074200F2006108F30074080319AE2BF00DF10DED
:10075200F20DF30D7010FF3EA52B7008DE0071083C
:10076200DF007208E0007308E1006108303EF0002B
:100772005B08840070088000DB0A80306306F000AA
:100782008030013A7002031CCF2B8030063AF00011
:10079200803063067002031CCF2BD62B5B088400CB
:1007A2002E308000DB0A0130E2000630DD005D08F9
:1007B200003A0319342CE1015E08F0005F08F100F1
:1007C2006008F2006108F300F00DF10DF20DF30D77
:1007D2007010F00DF10DF20DF30D70105E08F007C0
:1007E2005F0803185F0FF10760080318600FF20734
:1007F20061080318610FF3077008DE007108DF005B
:100802007208E0007308E1005E08F0005F08F10082
:100812006008F2006108F300F00DF10DF20DF30D26
:1008220070107008DE007108DF007208E0007308C3
:10083200E1006108303EF0005B088400700880002F
:10084200DB0A6208003A031D322CE3036308003A14
:10085200031D322C5B0884002E308000DB0A01303D
:10086200E200DD03D82BFF305B0784000008303A3A
:10087200031D3D2CDB03342CFF305B078400000892
:100882002E3A031D452CDB036308003A03197E2C24
:100892005B08840065308000DB0A80306306F0006C
:1008A2008030003A700203185E2C5B0884002D3001
:1008B2008000DB0A6308003CE3006308DD00630894
:1008C200093C0318702C0A30F4005D08F0009720F0
:1008D2003030F0075B08840070088000DB0A0A30C1
:1008E200F4005D08F00097207808F0003030F0073F
:1008F2005B08840070088000DB0A5B0884008001CA
:04090200F0010800F8
:10090600952C803083120313D700A82CC030D70053
:10091600A82C9430D700A82CD430D700A82C80302F
:10092600D700A82C831203135708013A0319842C05
:100936005708023A0319892C5708033A03198C2CD5
:100946005708043A03198F2C922C5803F0005708C5
:10095600F0077008D7007008E60030203F10DA0173
:100966005A085907840000080319C12C5A08590768
:1009760084000008E4008720DA0AB32C3F1408003C
:100986005225FF3083160313850007138717860148
:100996002F220130E60030200C30E60030200130F6
:1009A600D7000130D8002130D900832415308316B2
:1009B60099001815AD210330FB008A30FC00553034
:1009C600FD00FD0BE42CFC0BE42CFB0BE42C0000DF
:1009D6000000D701E92170088312C0007108C10028
:1009E600D3210030F4000030F5002030F6007730D7
:1009F600F7004C217008C2007108C3007208C400D9
:100A06007308C5007008D7007108D8007208D900AD
:100A16007308DA004730DB0089224730D7002F30D1
:100A2600D8000D227008C6000230D7000130D80069
:100A36007008D90083241A30FB005E30FC006E304B
:100A4600FD00FD0B242DFC0B242DFB0B242D00009B
:0A0A56004608D700BD21EC2C2F2D1F
:100AA400213084001C3083120313F0003530BD0064
:080AB4000530BE007D220800A0
:100A6A0056346F346C3474346134673465346D349D
:040A7A003A340034D6
:080A7E004E3461344E340034A3
:100A8600203456346F346C34743473340034003488
:040A960030340034C4
:080A9A0049344E3446340034A7
:02400E004A2F37
:00000001FF
